:100000000C9438000C9442000C9442000C94420072
:100010000C9442000C9442000C9442000C94420058
:100020000C9442000C9442000C9442000C94420048
:100030000C9442000C9442000C9442000C94420038
:100040000C9442000C9442000C9442000C94420028
:100050000C9442000C9442000C9442000C94420018
:100060000C9442000C9442000C9442000C94420008
:1000700011241FBECFEFD4E0DEBFCDBF0E94D7005A
:100080000C9431010C94000087B3816087BB89E137
:1000900083BF88E181BF089581B3806281BB82E81C
:1000A0008FBD8AE18EBD83EC99E095BD84BD8CEB5C
:1000B00090E09BBD8ABD089514BA15BA87E086B951
:1000C00017B887B3826287BB87B3877F87BB88B344
:1000D0008D7D88BB83EC99E00197F1F700C00000AB
:1000E0000895877087B986E08A95F1F700C088B3D4
:1000F000826088BB88B3806288BB86E08A95F1F70E
:1001000000C088B38D7F88BB88B38F7D88BBB399CF
:10011000FECFB39BFECF80E18A95F1F700C083B399
:1001200008950F931F93CF93DF93D82FC0E000E083
:1001300010E006C08D2F0E947100080F111DCF5FC7
:10014000C830C0F3C8019695879596958795969582
:100150008795DF91CF911F910F9108958D3791056C
:1001600010F48DE790E08B3F910510F08AEF90E05E
:100170009BBD8ABD0895813059F028F0823069F026
:10018000833081F008958DE790E00E94AE000895DD
:100190008BE990E00E94AE0008958CEB90E00E9405
:1001A000AE0008958CED90E00E94AE0008950E948C
:1001B00044000E944C000E945C0082E00E94BB0050
:1001C000F12C6894EE24E1F880E00E949100D82F91
:1001D00081E00E949100182F82E00E949100082F78
:1001E00083E00E949100D11718F02D2FC0E002C0CB
:1001F000212FC1E0201710F4202FC2E0281710F49F
:10020000282FC3E0EC16C9F030E0A9014D1B5109BD
:100210004931510594F4A901411B51094931510556
:1002200064F4A901401B51094931510534F4281BDC
:100230003109293131050CF4CE2DEC1651F0F3942F
:1002400082E08F1538F48C2F0E94BB00EC2EF12C2D
:1002500001C0F12C83ED90E30197F1F700C000009D
:06026000B3CFF894FFCFBC
:00000001FF
